{
  "contractName": "EvidenceContract",
  "abi": [
    {
      "anonymous": false,
      "inputs": [
        {
          "indexed": false,
          "internalType": "uint256",
          "name": "ID",
          "type": "uint256"
        },
        {
          "indexed": false,
          "internalType": "string",
          "name": "hash",
          "type": "string"
        },
        {
          "indexed": false,
          "internalType": "address",
          "name": "owner",
          "type": "address"
        },
        {
          "indexed": false,
          "internalType": "address",
          "name": "creator",
          "type": "address"
        },
        {
          "indexed": false,
          "internalType": "string",
          "name": "description",
          "type": "string"
        },
        {
          "indexed": false,
          "internalType": "address[]",
          "name": "taddr",
          "type": "address[]"
        },
        {
          "indexed": false,
          "internalType": "uint256[]",
          "name": "ttime",
          "type": "uint256[]"
        }
      ],
      "name": "EvidenceCreated",
      "type": "event"
    },
    {
      "anonymous": false,
      "inputs": [
        {
          "indexed": false,
          "internalType": "address[]",
          "name": "taddr",
          "type": "address[]"
        },
        {
          "indexed": false,
          "internalType": "uint256[]",
          "name": "ttime",
          "type": "uint256[]"
        }
      ],
      "name": "EvidenceTransfered",
      "type": "event"
    },
    {
      "constant": false,
      "inputs": [
        {
          "internalType": "uint256",
          "name": "ID",
          "type": "uint256"
        },
        {
          "internalType": "string",
          "name": "hash",
          "type": "string"
        },
        {
          "internalType": "string",
          "name": "description",
          "type": "string"
        }
      ],
      "name": "CreateEvidence",
      "outputs": [],
      "payable": false,
      "stateMutability": "nonpayable",
      "type": "function"
    },
    {
      "constant": false,
      "inputs": [
        {
          "internalType": "uint256",
          "name": "ID",
          "type": "uint256"
        },
        {
          "internalType": "address",
          "name": "newowner",
          "type": "address"
        }
      ],
      "name": "Transfer",
      "outputs": [],
      "payable": false,
      "stateMutability": "nonpayable",
      "type": "function"
    },
    {
      "constant": false,
      "inputs": [
        {
          "internalType": "uint256",
          "name": "ID",
          "type": "uint256"
        }
      ],
      "name": "RemoveEvidence",
      "outputs": [],
      "payable": false,
      "stateMutability": "nonpayable",
      "type": "function"
    },
    {
      "constant": true,
      "inputs": [
        {
          "internalType": "uint256",
          "name": "ID",
          "type": "uint256"
        }
      ],
      "name": "GetEvidenceInfo",
      "outputs": [
        {
          "internalType": "uint256",
          "name": "",
          "type": "uint256"
        },
        {
          "internalType": "address",
          "name": "",
          "type": "address"
        },
        {
          "internalType": "address",
          "name": "",
          "type": "address"
        },
        {
          "internalType": "string",
          "name": "",
          "type": "string"
        },
        {
          "internalType": "address[]",
          "name": "",
          "type": "address[]"
        },
        {
          "internalType": "uint256[]",
          "name": "",
          "type": "uint256[]"
        }
      ],
      "payable": false,
      "stateMutability": "view",
      "type": "function"
    },
    {
      "constant": true,
      "inputs": [
        {
          "internalType": "uint256",
          "name": "ID",
          "type": "uint256"
        }
      ],
      "name": "GetEvidence",
      "outputs": [
        {
          "internalType": "uint256",
          "name": "",
          "type": "uint256"
        },
        {
          "internalType": "string",
          "name": "",
          "type": "string"
        },
        {
          "internalType": "address",
          "name": "",
          "type": "address"
        },
        {
          "internalType": "address",
          "name": "",
          "type": "address"
        },
        {
          "internalType": "string",
          "name": "",
          "type": "string"
        }
      ],
      "payable": false,
      "stateMutability": "view",
      "type": "function"
    }
  ],
  "bytecode": "0x608060405234801561001057600080fd5b5061145f806100206000396000f3fe608060405234801561001057600080fd5b50600436106100575760003560e01c80635677640b1461005c5780635e75d75e146101dc5780638b612bda1461020a578063abe1dcf914610366578063dc625190146103b4575b600080fd5b6100886004803603602081101561007257600080fd5b8101908080359060200190929190505050610558565b60405180868152602001806020018573ffffffffffffffffffffffffffffffffffffffff1673ffffffffffffffffffffffffffffffffffffffff1681526020018473ffffffffffffffffffffffffffffffffffffffff1673ffffffffffffffffffffffffffffffffffffffff16815260200180602001838103835287818151815260200191508051906020019080838360005b8381101561013657808201518184015260208101905061011b565b50505050905090810190601f1680156101635780820380516001836020036101000a031916815260200191505b50838103825284818151815260200191508051906020019080838360005b8381101561019c578082015181840152602081019050610181565b50505050905090810190601f1680156101c95780820380516001836020036101000a031916815260200191505b5097505050505050505060405180910390f35b610208600480360360208110156101f257600080fd5b81019080803590602001909291905050506107c7565b005b6103646004803603606081101561022057600080fd5b81019080803590602001909291908035906020019064010000000081111561024757600080fd5b82018360208201111561025957600080fd5b8035906020019184600183028401116401000000008311171561027b57600080fd5b91908080601f016020809104026020016040519081016040528093929190818152602001838380828437600081840152601f19601f820116905080830192505050505050509192919290803590602001906401000000008111156102de57600080fd5b8201836020820111156102f057600080fd5b8035906020019184600183028401116401000000008311171561031257600080fd5b91908080601f016020809104026020016040519081016040528093929190818152602001838380828437600081840152601f19601f820116905080830192505050505050509192919290505050610935565b005b6103b26004803603604081101561037c57600080fd5b8101908080359060200190929190803573ffffffffffffffffffffffffffffffffffffffff169060200190929190505050610dbc565b005b6103e0600480360360208110156103ca57600080fd5b81019080803590602001909291905050506110a5565b604051808781526020018673ffffffffffffffffffffffffffffffffffffffff1673ffffffffffffffffffffffffffffffffffffffff1681526020018573ffffffffffffffffffffffffffffffffffffffff1673ffffffffffffffffffffffffffffffffffffffff168152602001806020018060200180602001848103845287818151815260200191508051906020019080838360005b83811015610492578082015181840152602081019050610477565b50505050905090810190601f1680156104bf5780820380516001836020036101000a031916815260200191505b50848103835286818151815260200191508051906020019060200280838360005b838110156104fb5780820151818401526020810190506104e0565b50505050905001848103825285818151815260200191508051906020019060200280838360005b8381101561053d578082015181840152602081019050610522565b50505050905001995050505050505050505060405180910390f35b6000606060008060608560008082815260200190815260200160002060020160009054906101000a900473ffffffffffffffffffffffffffffffffffffffff1673ffffffffffffffffffffffffffffffffffffffff163373ffffffffffffffffffffffffffffffffffffffff16146105cf57600080fd5b600080888152602001908152602001600020600001546000808981526020019081526020016000206001016000808a815260200190815260200160002060020160009054906101000a900473ffffffffffffffffffffffffffffffffffffffff166000808b815260200190815260200160002060030160009054906101000a900473ffffffffffffffffffffffffffffffffffffffff166000808c8152602001908152602001600020600401838054600181600116156101000203166002900480601f0160208091040260200160405190810160405280929190818152602001828054600181600116156101000203166002900480156107105780601f106106e557610100808354040283529160200191610710565b820191906000526020600020905b8154815290600101906020018083116106f357829003601f168201915b50505050509350808054600181600116156101000203166002900480601f0160208091040260200160405190810160405280929190818152602001828054600181600116156101000203166002900480156107ac5780601f10610781576101008083540402835291602001916107ac565b820191906000526020600020905b81548152906001019060200180831161078f57829003601f168201915b50505050509050955095509550955095505091939590929450565b8060008082815260200190815260200160002060030160009054906101000a900473ffffffffffffffffffffffffffffffffffffffff1673ffffffffffffffffffffffffffffffffffffffff163373ffffffffffffffffffffffffffffffffffffffff161461083557600080fd5b8160016000806000808581526020019081526020016000206000015414159050811561087757600083141580156108695750805b61087257600080fd5b610883565b801561088257600080fd5b5b6000808681526020019081526020016000206000808201600090556001820160006108ae91906112fb565b6002820160006101000a81549073ffffffffffffffffffffffffffffffffffffffff02191690556003820160006101000a81549073ffffffffffffffffffffffffffffffffffffffff021916905560048201600061090c91906112fb565b60058201600061091c9190611343565b60068201600061092c9190611364565b50505050505050565b8260008060008060008581526020019081526020016000206000015414159050811561097757600083141580156109695750805b61097257600080fd5b610983565b801561098257600080fd5b5b85600080888152602001908152602001600020600001819055508460008088815260200190815260200160002060010190805190602001906109c6929190611385565b503360008088815260200190815260200160002060020160006101000a81548173ffffffffffffffffffffffffffffffffffffffff021916908373ffffffffffffffffffffffffffffffffffffffff1602179055503360008088815260200190815260200160002060030160006101000a81548173ffffffffffffffffffffffffffffffffffffffff021916908373ffffffffffffffffffffffffffffffffffffffff160217905550836000808881526020019081526020016000206004019080519060200190610a98929190611385565b506000808781526020019081526020016000206005013390806001815401808255809150509060018203906000526020600020016000909192909190916101000a81548173ffffffffffffffffffffffffffffffffffffffff021916908373ffffffffffffffffffffffffffffffffffffffff160217905550506000808781526020019081526020016000206006014290806001815401808255809150509060018203906000526020600020016000909192909190915055507f87fcaf7f932324678a91cda66ad1d7d7964619d12909e87e2390a8c6e2c4b36a86863333886000808d81526020019081526020016000206005016000808e815260200190815260200160002060060160405180888152602001806020018773ffffffffffffffffffffffffffffffffffffffff1673ffffffffffffffffffffffffffffffffffffffff1681526020018673ffffffffffffffffffffffffffffffffffffffff1673ffffffffffffffffffffffffffffffffffffffff16815260200180602001806020018060200185810385528b818151815260200191508051906020019080838360005b83811015610c57578082015181840152602081019050610c3c565b50505050905090810190601f168015610c845780820380516001836020036101000a031916815260200191505b50858103845288818151815260200191508051906020019080838360005b83811015610cbd578082015181840152602081019050610ca2565b50505050905090810190601f168015610cea5780820380516001836020036101000a031916815260200191505b508581038352878181548152602001915080548015610d5e57602002820191906000526020600020905b8160009054906101000a900473ffffffffffffffffffffffffffffffffffffffff1673ffffffffffffffffffffffffffffffffffffffff1681526020019060010190808311610d14575b50508581038252868181548152602001915080548015610d9d57602002820191906000526020600020905b815481526020019060010190808311610d89575b50509b50505050505050505050505060405180910390a1505050505050565b8160008082815260200190815260200160002060020160009054906101000a900473ffffffffffffffffffffffffffffffffffffffff1673ffffffffffffffffffffffffffffffffffffffff163373ffffffffffffffffffffffffffffffffffffffff1614610e2a57600080fd5b82600160008060008085815260200190815260200160002060000154141590508115610e6c5760008314158015610e5e5750805b610e6757600080fd5b610e78565b8015610e7757600080fd5b5b8460008088815260200190815260200160002060020160006101000a81548173ffffffffffffffffffffffffffffffffffffffff021916908373ffffffffffffffffffffffffffffffffffffffff1602179055506000808781526020019081526020016000206005018590806001815401808255809150509060018203906000526020600020016000909192909190916101000a81548173ffffffffffffffffffffffffffffffffffffffff021916908373ffffffffffffffffffffffffffffffffffffffff160217905550506000808781526020019081526020016000206006014290806001815401808255809150509060018203906000526020600020016000909192909190915055507f3f3551d2c1e693935c69c4083a5984526c19f52aa69a23daf9ee14a3212dcf9e600080888152602001908152602001600020600501600080898152602001908152602001600020600601604051808060200180602001838103835285818154815260200191508054801561104e57602002820191906000526020600020905b8160009054906101000a900473ffffffffffffffffffffffffffffffffffffffff1673ffffffffffffffffffffffffffffffffffffffff1681526020019060010190808311611004575b5050838103825284818154815260200191508054801561108d57602002820191906000526020600020905b815481526020019060010190808311611079575b505094505050505060405180910390a1505050505050565b600080600060608060606000808881526020019081526020016000206000015460008089815260200190815260200160002060020160009054906101000a900473ffffffffffffffffffffffffffffffffffffffff166000808a815260200190815260200160002060030160009054906101000a900473ffffffffffffffffffffffffffffffffffffffff166000808b81526020019081526020016000206004016000808c81526020019081526020016000206005016000808d8152602001908152602001600020600601828054600181600116156101000203166002900480601f0160208091040260200160405190810160405280929190818152602001828054600181600116156101000203166002900480156112055780601f106111da57610100808354040283529160200191611205565b820191906000526020600020905b8154815290600101906020018083116111e857829003601f168201915b505050505092508180548060200260200160405190810160405280929190818152602001828054801561128d57602002820191906000526020600020905b8160009054906101000a900473ffffffffffffffffffffffffffffffffffffffff1673ffffffffffffffffffffffffffffffffffffffff1681526020019060010190808311611243575b50505050509150808054806020026020016040519081016040528092919081815260200182805480156112df57602002820191906000526020600020905b8154815260200190600101908083116112cb575b5050505050905095509550955095509550955091939550919395565b50805460018160011615610100020316600290046000825580601f106113215750611340565b601f01602090049060005260206000209081019061133f9190611405565b5b50565b50805460008255906000526020600020908101906113619190611405565b50565b50805460008255906000526020600020908101906113829190611405565b50565b828054600181600116156101000203166002900490600052602060002090601f016020900481019282601f106113c657805160ff19168380011785556113f4565b828001600101855582156113f4579182015b828111156113f35782518255916020019190600101906113d8565b5b5090506114019190611405565b5090565b61142791905b8082111561142357600081600090555060010161140b565b5090565b9056fea265627a7a72315820a2c8df505843bb064f61c90c073e04ba31dc3ee0f5c1178ce05733b968171ace64736f6c63430005100032",
  "source": "// SPDX-License-Identifier: MIT\r\npragma solidity >=0.5.0 <0.9.0;\r\n\r\ncontract EvidenceContract {\r\n\r\n    struct Evidence {\r\n        uint ID;\r\n        string hash;\r\n        address owner;\r\n        address creator;\r\n        string description;\r\n        address[] taddr;\r\n        uint[] ttime;\r\n    }\r\n\r\n    event EvidenceCreated(\r\n        uint ID,\r\n        string hash,\r\n        address owner,\r\n        address creator,\r\n        string description,\r\n        address[] taddr,\r\n        uint[] ttime\r\n    ); \r\n    \r\n    event EvidenceTransfered(\r\n        address[] taddr,\r\n        uint[] ttime\r\n    );\r\n\r\n\r\n    mapping(uint => Evidence) private evidences;\r\n\r\n    modifier OnlyOwner(uint ID) {\r\n        require(msg.sender == evidences[ID].owner); _;}\r\n\r\n    modifier OnlyCreator(uint ID) {\r\n        require(msg.sender == evidences[ID].creator); _;}\r\n    \r\n    modifier EvidenceExists(uint ID, bool mustExist) {\r\n        bool exists = evidences[ID].ID != 0;\r\n        if (mustExist)\r\n            require (ID != 0 && exists);\r\n        else\r\n            require (!exists);\r\n    _;}\r\n\r\n    function CreateEvidence( uint ID ,string memory hash , string memory description) public EvidenceExists(ID, false) {\r\n        evidences[ID].ID = ID;\r\n        evidences[ID].hash = hash;\r\n        evidences[ID].owner = msg.sender;\r\n        evidences[ID].creator = msg.sender;\r\n        evidences[ID].description = description;\r\n        evidences[ID].taddr.push(msg.sender);\r\n        evidences[ID].ttime.push(block.timestamp);\r\n\r\n        emit EvidenceCreated(ID, hash, msg.sender, msg.sender, description, evidences[ID].taddr, evidences[ID].ttime);\r\n    }\r\n\r\n    function Transfer(uint ID, address newowner) public OnlyOwner(ID) EvidenceExists(ID, true) {\r\n        evidences[ID].owner = newowner;\r\n        evidences[ID].taddr.push(newowner);\r\n        evidences[ID].ttime.push(block.timestamp);\r\n\r\n        emit EvidenceTransfered(evidences[ID].taddr, evidences[ID].ttime);\r\n    }\r\n\r\n    function RemoveEvidence(uint ID)\r\n        public OnlyCreator(ID) EvidenceExists(ID, true) {\r\n        delete evidences[ID];\r\n    }\r\n    \r\n    function GetEvidenceInfo(uint ID) view public returns (uint, address, address, string memory, address[] memory, uint[] memory) {\r\n        return ( evidences[ID].ID, evidences[ID].owner,\r\n            evidences[ID].creator, evidences[ID].description,\r\n            evidences[ID].taddr, evidences[ID].ttime);\r\n    }\r\n\r\n    function GetEvidence(uint ID) view public OnlyOwner(ID) returns (uint, string memory, address, address, string memory) {\r\n        \r\n        return ( evidences[ID].ID, evidences[ID].hash ,evidences[ID].owner,\r\n            evidences[ID].creator, evidences[ID].description\r\n            );\r\n    }\r\n}",
  "sourcePath": "D:\\PCCOE\\projects\\blockchain\\dapp\\src\\contracts\\EvidenceContract.sol",
  "compiler": {
    "name": "solc",
    "version": "0.5.16+commit.9c3226ce.Emscripten.clang"
  },
  "schemaVersion": "3.4.12",
  "updatedAt": "2023-04-04T05:01:24.451Z",
  "networkType": "ethereum",
  "devdoc": {
    "methods": {}
  },
  "userdoc": {
    "methods": {}
  }
}